{
  "contractName": "NigamCrowdsale",
  "abi": [
    {
      "constant": true,
      "inputs": [],
      "name": "preSale2_startTimestamp",
      "outputs": [
        {
          "name": "",
          "type": "uint256"
        }
      ],
      "payable": false,
      "stateMutability": "view",
      "type": "function"
    },
    {
      "constant": true,
      "inputs": [],
      "name": "preSale2_endTimestamp",
      "outputs": [
        {
          "name": "",
          "type": "uint256"
        }
      ],
      "payable": false,
      "stateMutability": "view",
      "type": "function"
    },
    {
      "constant": false,
      "inputs": [
        {
          "name": "token",
          "type": "address"
        }
      ],
      "name": "reclaimToken",
      "outputs": [],
      "payable": false,
      "stateMutability": "nonpayable",
      "type": "function"
    },
    {
      "constant": true,
      "inputs": [
        {
          "name": "etherAmount",
          "type": "uint256"
        }
      ],
      "name": "currentRate",
      "outputs": [
        {
          "name": "",
          "type": "uint256"
        }
      ],
      "payable": false,
      "stateMutability": "view",
      "type": "function"
    },
    {
      "constant": false,
      "inputs": [
        {
          "name": "amount",
          "type": "uint256"
        }
      ],
      "name": "claim",
      "outputs": [],
      "payable": false,
      "stateMutability": "nonpayable",
      "type": "function"
    },
    {
      "constant": false,
      "inputs": [
        {
          "name": "reserveBeneficiaries",
          "type": "address[]"
        },
        {
          "name": "reserveReleases",
          "type": "uint64[]"
        },
        {
          "name": "reservePercents",
          "type": "uint8[]"
        }
      ],
      "name": "finishCrowdsale",
      "outputs": [],
      "payable": false,
      "stateMutability": "nonpayable",
      "type": "function"
    },
    {
      "constant": true,
      "inputs": [],
      "name": "preSale2BasePriceInWei",
      "outputs": [
        {
          "name": "",
          "type": "uint256"
        }
      ],
      "payable": false,
      "stateMutability": "view",
      "type": "function"
    },
    {
      "constant": true,
      "inputs": [],
      "name": "ownersPercent",
      "outputs": [
        {
          "name": "",
          "type": "uint8"
        }
      ],
      "payable": false,
      "stateMutability": "view",
      "type": "function"
    },
    {
      "constant": false,
      "inputs": [
        {
          "name": "newState",
          "type": "uint8"
        }
      ],
      "name": "setState",
      "outputs": [],
      "payable": false,
      "stateMutability": "nonpayable",
      "type": "function"
    },
    {
      "constant": true,
      "inputs": [],
      "name": "bonusDecreaseInterval",
      "outputs": [
        {
          "name": "",
          "type": "uint256"
        }
      ],
      "payable": false,
      "stateMutability": "view",
      "type": "function"
    },
    {
      "constant": true,
      "inputs": [],
      "name": "preSale2EthHardCap",
      "outputs": [
        {
          "name": "",
          "type": "uint256"
        }
      ],
      "payable": false,
      "stateMutability": "view",
      "type": "function"
    },
    {
      "constant": true,
      "inputs": [],
      "name": "preSale2WeiCollected",
      "outputs": [
        {
          "name": "",
          "type": "uint256"
        }
      ],
      "payable": false,
      "stateMutability": "view",
      "type": "function"
    },
    {
      "constant": true,
      "inputs": [],
      "name": "ICO_startTimestamp",
      "outputs": [
        {
          "name": "",
          "type": "uint256"
        }
      ],
      "payable": false,
      "stateMutability": "view",
      "type": "function"
    },
    {
      "constant": true,
      "inputs": [],
      "name": "preSale1_endTimestamp",
      "outputs": [
        {
          "name": "",
          "type": "uint256"
        }
      ],
      "payable": false,
      "stateMutability": "view",
      "type": "function"
    },
    {
      "constant": true,
      "inputs": [],
      "name": "owner",
      "outputs": [
        {
          "name": "",
          "type": "address"
        }
      ],
      "payable": false,
      "stateMutability": "view",
      "type": "function"
    },
    {
      "constant": true,
      "inputs": [],
      "name": "ICO_EthHardCap",
      "outputs": [
        {
          "name": "",
          "type": "uint256"
        }
      ],
      "payable": false,
      "stateMutability": "view",
      "type": "function"
    },
    {
      "constant": true,
      "inputs": [],
      "name": "preSale1_startTimestamp",
      "outputs": [
        {
          "name": "",
          "type": "uint256"
        }
      ],
      "payable": false,
      "stateMutability": "view",
      "type": "function"
    },
    {
      "constant": true,
      "inputs": [],
      "name": "crowdsaleOpen",
      "outputs": [
        {
          "name": "",
          "type": "bool"
        }
      ],
      "payable": false,
      "stateMutability": "view",
      "type": "function"
    },
    {
      "constant": true,
      "inputs": [
        {
          "name": "etherAmount",
          "type": "uint256"
        },
        {
          "name": "basePriceWei",
          "type": "uint256"
        }
      ],
      "name": "calculateICOrate",
      "outputs": [
        {
          "name": "",
          "type": "uint256"
        }
      ],
      "payable": false,
      "stateMutability": "view",
      "type": "function"
    },
    {
      "constant": true,
      "inputs": [
        {
          "name": "etherAmount",
          "type": "uint256"
        },
        {
          "name": "basePriceWei",
          "type": "uint256"
        }
      ],
      "name": "calculatePreSaleTwoRate",
      "outputs": [
        {
          "name": "",
          "type": "uint256"
        }
      ],
      "payable": false,
      "stateMutability": "view",
      "type": "function"
    },
    {
      "constant": false,
      "inputs": [
        {
          "name": "from_",
          "type": "address"
        },
        {
          "name": "value_",
          "type": "uint256"
        },
        {
          "name": "data_",
          "type": "bytes"
        }
      ],
      "name": "tokenFallback",
      "outputs": [],
      "payable": false,
      "stateMutability": "nonpayable",
      "type": "function"
    },
    {
      "constant": true,
      "inputs": [],
      "name": "state",
      "outputs": [
        {
          "name": "",
          "type": "uint8"
        }
      ],
      "payable": false,
      "stateMutability": "view",
      "type": "function"
    },
    {
      "constant": true,
      "inputs": [],
      "name": "preSale1BasePriceInWei",
      "outputs": [
        {
          "name": "",
          "type": "uint256"
        }
      ],
      "payable": false,
      "stateMutability": "view",
      "type": "function"
    },
    {
      "constant": true,
      "inputs": [],
      "name": "preSale1WeiCollected",
      "outputs": [
        {
          "name": "",
          "type": "uint256"
        }
      ],
      "payable": false,
      "stateMutability": "view",
      "type": "function"
    },
    {
      "constant": true,
      "inputs": [],
      "name": "ICO_endTimestamp",
      "outputs": [
        {
          "name": "",
          "type": "uint256"
        }
      ],
      "payable": false,
      "stateMutability": "view",
      "type": "function"
    },
    {
      "constant": true,
      "inputs": [],
      "name": "preSale1EthHardCap",
      "outputs": [
        {
          "name": "",
          "type": "uint256"
        }
      ],
      "payable": false,
      "stateMutability": "view",
      "type": "function"
    },
    {
      "constant": false,
      "inputs": [],
      "name": "totalEthRaised",
      "outputs": [
        {
          "name": "",
          "type": "uint256"
        }
      ],
      "payable": false,
      "stateMutability": "nonpayable",
      "type": "function"
    },
    {
      "constant": true,
      "inputs": [
        {
          "name": "etherAmount",
          "type": "uint256"
        },
        {
          "name": "basePriceWei",
          "type": "uint256"
        }
      ],
      "name": "calculatePreSaleOneRate",
      "outputs": [
        {
          "name": "",
          "type": "uint256"
        }
      ],
      "payable": false,
      "stateMutability": "view",
      "type": "function"
    },
    {
      "constant": true,
      "inputs": [],
      "name": "ICO_basePriceInWei",
      "outputs": [
        {
          "name": "",
          "type": "uint256"
        }
      ],
      "payable": false,
      "stateMutability": "view",
      "type": "function"
    },
    {
      "constant": true,
      "inputs": [
        {
          "name": "_state",
          "type": "uint8"
        }
      ],
      "name": "hardCapReached",
      "outputs": [
        {
          "name": "",
          "type": "bool"
        }
      ],
      "payable": false,
      "stateMutability": "view",
      "type": "function"
    },
    {
      "constant": true,
      "inputs": [],
      "name": "ICO_WeiCollected",
      "outputs": [
        {
          "name": "",
          "type": "uint256"
        }
      ],
      "payable": false,
      "stateMutability": "view",
      "type": "function"
    },
    {
      "constant": false,
      "inputs": [
        {
          "name": "newOwner",
          "type": "address"
        }
      ],
      "name": "transferOwnership",
      "outputs": [],
      "payable": false,
      "stateMutability": "nonpayable",
      "type": "function"
    },
    {
      "constant": true,
      "inputs": [],
      "name": "daysPassed",
      "outputs": [
        {
          "name": "",
          "type": "uint256"
        }
      ],
      "payable": false,
      "stateMutability": "view",
      "type": "function"
    },
    {
      "constant": true,
      "inputs": [],
      "name": "token",
      "outputs": [
        {
          "name": "",
          "type": "address"
        }
      ],
      "payable": false,
      "stateMutability": "view",
      "type": "function"
    },
    {
      "inputs": [
        {
          "name": "_preSale1BasePriceInWei",
          "type": "uint256"
        },
        {
          "name": "_preSale1EthHardCap",
          "type": "uint256"
        },
        {
          "name": "_preSale2BasePriceInWei",
          "type": "uint256"
        },
        {
          "name": "_preSale2EthHardCap",
          "type": "uint256"
        },
        {
          "name": "_ICO_basePriceInWei",
          "type": "uint256"
        },
        {
          "name": "_ICO_EthHardCap",
          "type": "uint256"
        },
        {
          "name": "_bonusDecreaseInterval",
          "type": "uint256"
        },
        {
          "name": "_ownersPercent",
          "type": "uint8"
        }
      ],
      "payable": false,
      "stateMutability": "nonpayable",
      "type": "constructor"
    },
    {
      "payable": true,
      "stateMutability": "payable",
      "type": "fallback"
    },
    {
      "anonymous": false,
      "inputs": [
        {
          "indexed": true,
          "name": "purchaser",
          "type": "address"
        },
        {
          "indexed": false,
          "name": "value",
          "type": "uint256"
        },
        {
          "indexed": false,
          "name": "amount",
          "type": "uint256"
        }
      ],
      "name": "TokenPurchase",
      "type": "event"
    },
    {
      "anonymous": false,
      "inputs": [
        {
          "indexed": false,
          "name": "TokenTimelock",
          "type": "address"
        },
        {
          "indexed": false,
          "name": "releaseTimestamp",
          "type": "uint64"
        },
        {
          "indexed": false,
          "name": "beneficiary",
          "type": "address"
        },
        {
          "indexed": false,
          "name": "amount",
          "type": "uint256"
        }
      ],
      "name": "TokenTimelockCreated",
      "type": "event"
    },
    {
      "anonymous": false,
      "inputs": [
        {
          "indexed": true,
          "name": "previousOwner",
          "type": "address"
        },
        {
          "indexed": true,
          "name": "newOwner",
          "type": "address"
        }
      ],
      "name": "OwnershipTransferred",
      "type": "event"
    }
  ],
  "bytecode": "0x606060405234156200001057600080fd5b6040516101008062004ab383398101604052808051906020019091908051906020019091908051906020019091908051906020019091908051906020019091908051906020019091908051906020019091908051906020019091905050336000806101000a81548173ffffffffffffffffffffffffffffffffffffffff021916908373ffffffffffffffffffffffffffffffffffffffff1602179055506000601360016101000a81548160ff02191690836004811115620000cd57fe5b02179055508760038190555086600481905550856008819055508460098190555083600d8190555082600e819055508160118190555080601360006101000a81548160ff021916908360ff160217905550620001286200018d565b604051809103906000f08015156200013f57600080fd5b600160006101000a81548173ffffffffffffffffffffffffffffffffffffffff021916908373ffffffffffffffffffffffffffffffffffffffff16021790555050505050505050506200019e565b6040516120b08062002a0383390190565b61285580620001ae6000396000f3006060604052600436106101ac576000357c0100000000000000000000000000000000000000000000000000000000900463ffffffff1680630111f45f1461046a5780630457e2991461049357806317ffc320146104bc578063246f938f146104f5578063379607f51461052c57806339157e971461054f5780634b5b518c14610629578063559bdcaf1461065257806356de96db146106815780635c124e86146106a7578063719cceaa146106d05780637259682f146106f957806374d3a21d146107225780637f02b8ee1461074b5780638da5cb5b1461077457806399b4edea146107c9578063adbf1dca146107f2578063b2d8efe01461081b578063b79228fd14610848578063be8126ba14610888578063c0ee0b8a146108c8578063c19d93fb1461091e578063c296ff7914610955578063c2d0bfd81461097e578063c9567d39146109a7578063c967691c146109d0578063c9e904be146109f9578063cf6182f114610a22578063d5c95f7b14610a62578063d99294df14610a8b578063dd42800114610ac9578063f2fde38b14610af2578063f516ff3714610b2b578063fc0c546a14610b54575b6000806000341115156101be57600080fd5b6101c6610ba9565b15156101d157600080fd5b6101da34610c2b565b91506000821115156101e857fe5b6101fb3483610d6890919063ffffffff16565b9050600160009054906101000a900473ffffffffffffffffffffffffffffffffffffffff1673ffffffffffffffffffffffffffffffffffffffff166340c10f1933836000604051602001526040518363ffffffff167c0100000000000000000000000000000000000000000000000000000000028152600401808373ffffffffffffffffffffffffffffffffffffffff1673ffffffffffffffffffffffffffffffffffffffff16815260200182815260200192505050602060405180830381600087803b15156102ca57600080fd5b6102c65a03f115156102db57600080fd5b50505060405180519050503373ffffffffffffffffffffffffffffffffffffffff167fcd60aa75dea3072fbc07ae6d7d856b5dc5f4eee88854f5b4abf7b680ef8bc50f3483604051808381526020018281526020019250505060405180910390a26001600481111561034957fe5b601360019054906101000a900460ff16600481111561036457fe5b141561038a5761037f34600554610d9b90919063ffffffff16565b600581905550610424565b6002600481111561039757fe5b601360019054906101000a900460ff1660048111156103b257fe5b14156103d8576103cd34600a54610d9b90919063ffffffff16565b600a81905550610423565b600360048111156103e557fe5b601360019054906101000a900460ff16600481111561040057fe5b14156104225761041b34600f54610d9b90919063ffffffff16565b600f819055505b5b5b61043c601360019054906101000a900460ff16610db9565b15610466576000601360016101000a81548160ff0219169083600481111561046057fe5b02179055505b5050005b341561047557600080fd5b61047d610e9d565b6040518082815260200191505060405180910390f35b341561049e57600080fd5b6104a6610ea3565b6040518082815260200191505060405180910390f35b34156104c757600080fd5b6104f3600480803573ffffffffffffffffffffffffffffffffffffffff16906020019091905050610ea9565b005b341561050057600080fd5b6105166004808035906020019091905050610c2b565b6040518082815260200191505060405180910390f35b341561053757600080fd5b61054d6004808035906020019091905050611016565b005b341561055a57600080fd5b61062760048080359060200190820180359060200190808060200260200160405190810160405280939291908181526020018383602002808284378201915050505050509190803590602001908201803590602001908080602002602001604051908101604052809392919081815260200183836020028082843782019150505050505091908035906020019082018035906020019080806020026020016040519081016040528093929190818152602001838360200280828437820191505050505050919050506110fb565b005b341561063457600080fd5b61063c6119fe565b6040518082815260200191505060405180910390f35b341561065d57600080fd5b610665611a04565b604051808260ff1660ff16815260200191505060405180910390f35b341561068c57600080fd5b6106a5600480803560ff16906020019091905050611a17565b005b34156106b257600080fd5b6106ba611ba6565b6040518082815260200191505060405180910390f35b34156106db57600080fd5b6106e3611bac565b6040518082815260200191505060405180910390f35b341561070457600080fd5b61070c611bb2565b6040518082815260200191505060405180910390f35b341561072d57600080fd5b610735611bb8565b6040518082815260200191505060405180910390f35b341561075657600080fd5b61075e611bbe565b6040518082815260200191505060405180910390f35b341561077f57600080fd5b610787611bc4565b604051808273ffffffffffffffffffffffffffffffffffffffff1673ffffffffffffffffffffffffffffffffffffffff16815260200191505060405180910390f35b34156107d457600080fd5b6107dc611be9565b6040518082815260200191505060405180910390f35b34156107fd57600080fd5b610805611bef565b6040518082815260200191505060405180910390f35b341561082657600080fd5b61082e610ba9565b604051808215151515815260200191505060405180910390f35b341561085357600080fd5b6108726004808035906020019091908035906020019091905050611bf5565b6040518082815260200191505060405180910390f35b341561089357600080fd5b6108b26004808035906020019091908035906020019091905050611cfa565b6040518082815260200191505060405180910390f35b34156108d357600080fd5b61091c600480803573ffffffffffffffffffffffffffffffffffffffff169060200190919080359060200190919080359060200190820180359060200191909192905050611e93565b005b341561092957600080fd5b610931611e98565b6040518082600481111561094157fe5b60ff16815260200191505060405180910390f35b341561096057600080fd5b610968611eab565b6040518082815260200191505060405180910390f35b341561098957600080fd5b610991611eb1565b6040518082815260200191505060405180910390f35b34156109b257600080fd5b6109ba611eb7565b6040518082815260200191505060405180910390f35b34156109db57600080fd5b6109e3611ebd565b6040518082815260200191505060405180910390f35b3415610a0457600080fd5b610a0c611ec3565b6040518082815260200191505060405180910390f35b3415610a2d57600080fd5b610a4c6004808035906020019091908035906020019091905050611efa565b6040518082815260200191505060405180910390f35b3415610a6d57600080fd5b610a75611f7c565b6040518082815260200191505060405180910390f35b3415610a9657600080fd5b610aaf600480803560ff16906020019091905050610db9565b604051808215151515815260200191505060405180910390f35b3415610ad457600080fd5b610adc611f82565b6040518082815260200191505060405180910390f35b3415610afd57600080fd5b610b29600480803573ffffffffffffffffffffffffffffffffffffffff16906020019091905050611f88565b005b3415610b3657600080fd5b610b3e6120dd565b6040518082815260200191505060405180910390f35b3415610b5f57600080fd5b610b676120e3565b604051808273ffffffffffffffffffffffffffffffffffffffff1673ffffffffffffffffffffffffffffffffffffffff16815260200191505060405180910390f35b6000806004811115610bb757fe5b601360019054906101000a900460ff166004811115610bd257fe5b14158015610c055750600480811115610be757fe5b601360019054906101000a900460ff166004811115610c0257fe5b14155b8015610c265750610c24601360019054906101000a900460ff16610db9565b155b905090565b60008060006004811115610c3b57fe5b601360019054906101000a900460ff166004811115610c5657fe5b1480610c865750600480811115610c6957fe5b601360019054906101000a900460ff166004811115610c8457fe5b145b15610c945760009150610d62565b60016004811115610ca157fe5b601360019054906101000a900460ff166004811115610cbc57fe5b1415610cd557610cce83600354611efa565b9050610d5e565b60026004811115610ce257fe5b601360019054906101000a900460ff166004811115610cfd57fe5b1415610d1657610d0f83600854611cfa565b9050610d5d565b60036004811115610d2357fe5b601360019054906101000a900460ff166004811115610d3e57fe5b1415610d5757610d5083600d54611bf5565b9050610d5c565b600080fd5b5b5b8091505b50919050565b60008082840290506000841480610d895750828482811515610d8657fe5b04145b1515610d9157fe5b8091505092915050565b6000808284019050838110151515610daf57fe5b8091505092915050565b600060016004811115610dc857fe5b826004811115610dd457fe5b1415610e0357610df7670de0b6b3a7640000600454610d6890919063ffffffff16565b60055410159050610e98565b60026004811115610e1057fe5b826004811115610e1c57fe5b1415610e4b57610e3f670de0b6b3a7640000600954610d6890919063ffffffff16565b600a5410159050610e98565b60036004811115610e5857fe5b826004811115610e6457fe5b1415610e9357610e87670de0b6b3a7640000600e54610d6890919063ffffffff16565b600f5410159050610e98565b600090505b919050565b60075481565b600b5481565b60008060009054906101000a900473ffffffffffffffffffffffffffffffffffffffff1673ffffffffffffffffffffffffffffffffffffffff163373ffffffffffffffffffffffffffffffffffffffff16141515610f0657600080fd5b8173ffffffffffffffffffffffffffffffffffffffff166370a08231306000604051602001526040518263ffffffff167c0100000000000000000000000000000000000000000000000000000000028152600401808273ffffffffffffffffffffffffffffffffffffffff1673ffffffffffffffffffffffffffffffffffffffff168152602001915050602060405180830381600087803b1515610fa957600080fd5b6102c65a03f11515610fba57600080fd5b5050506040518051905090506110126000809054906101000a900473ffffffffffffffffffffffffffffffffffffffff16828473ffffffffffffffffffffffffffffffffffffffff166121099092919063ffffffff16565b5050565b6000809054906101000a900473ffffffffffffffffffffffffffffffffffffffff1673ffffffffffffffffffffffffffffffffffffffff163373ffffffffffffffffffffffffffffffffffffffff1614151561107157600080fd5b803073ffffffffffffffffffffffffffffffffffffffff16311015151561109757600080fd5b6000809054906101000a900473ffffffffffffffffffffffffffffffffffffffff1673ffffffffffffffffffffffffffffffffffffffff166108fc829081150290604051600060405180830381858888f1935050505015156110f857600080fd5b50565b6000806000806000806000809054906101000a900473ffffffffffffffffffffffffffffffffffffffff1673ffffffffffffffffffffffffffffffffffffffff163373ffffffffffffffffffffffffffffffffffffffff1614151561115f57600080fd5b8751895114151561116f57600080fd5b8651895114151561117f57600080fd5b60009550600094505b86518560ff16101561122c576000878660ff168151811015156111a757fe5b9060200190602002015160ff161115156111c057600080fd5b6064878660ff168151811015156111d357fe5b9060200190602002015160ff16111515156111ed57600080fd5b868560ff168151811015156111fe57fe5b906020019060200201518601955060648660ff161115151561121f57600080fd5b8480600101955050611188565b8560640393506113126064611304601360009054906101000a900460ff1660ff16600160009054906101000a900473ffffffffffffffffffffffffffffffffffffffff1673ffffffffffffffffffffffffffffffffffffffff166318160ddd6000604051602001526040518163ffffffff167c0100000000000000000000000000000000000000000000000000000000028152600401602060405180830381600087803b15156112db57600080fd5b6102c65a03f115156112ec57600080fd5b50505060405180519050610d6890919063ffffffff16565b6121dc90919063ffffffff16565b9250600094505b88518560ff1610156116ff57611368606461135a898860ff1681518110151561133e57fe5b9060200190602002015160ff1686610d6890919063ffffffff16565b6121dc90919063ffffffff16565b915042888660ff1681518110151561137c57fe5b9060200190602002015167ffffffffffffffff1611151561139c57600080fd5b600073ffffffffffffffffffffffffffffffffffffffff16898660ff168151811015156113c557fe5b9060200190602002015173ffffffffffffffffffffffffffffffffffffffff16141515156113f257600080fd5b878560ff1681518110151561140357fe5b90602001906020020151611415612210565b808267ffffffffffffffff1667ffffffffffffffff168152602001915050604051809103906000f080151561144957600080fd5b90508073ffffffffffffffffffffffffffffffffffffffff1663f2fde38b8a8760ff1681518110151561147857fe5b906020019060200201516040518263ffffffff167c0100000000000000000000000000000000000000000000000000000000028152600401808273ffffffffffffffffffffffffffffffffffffffff1673ffffffffffffffffffffffffffffffffffffffff168152602001915050600060405180830381600087803b15156114ff57600080fd5b6102c65a03f1151561151057600080fd5b505050600160009054906101000a900473ffffffffffffffffffffffffffffffffffffffff1673ffffffffffffffffffffffffffffffffffffffff166340c10f1982846000604051602001526040518363ffffffff167c0100000000000000000000000000000000000000000000000000000000028152600401808373ffffffffffffffffffffffffffffffffffffffff1673ffffffffffffffffffffffffffffffffffffffff16815260200182815260200192505050602060405180830381600087803b15156115e057600080fd5b6102c65a03f115156115f157600080fd5b50505060405180519050151561160357fe5b7fd4b7540f94e6b19659e23a1746e619882d4cce00ef89de64683ffc3c947b82ab81898760ff1681518110151561163657fe5b906020019060200201518b8860ff1681518110151561165157fe5b9060200190602002015185604051808573ffffffffffffffffffffffffffffffffffffffff1673ffffffffffffffffffffffffffffffffffffffff1681526020018467ffffffffffffffff1667ffffffffffffffff1681526020018373ffffffffffffffffffffffffffffffffffffffff1673ffffffffffffffffffffffffffffffffffffffff16815260200182815260200194505050505060405180910390a18480600101955050611319565b611728606461171a8660ff1686610d6890919063ffffffff16565b6121dc90919063ffffffff16565b9150600160009054906101000a900473ffffffffffffffffffffffffffffffffffffffff1673ffffffffffffffffffffffffffffffffffffffff166340c10f196000809054906101000a900473ffffffffffffffffffffffffffffffffffffffff16846000604051602001526040518363ffffffff167c0100000000000000000000000000000000000000000000000000000000028152600401808373ffffffffffffffffffffffffffffffffffffffff1673ffffffffffffffffffffffffffffffffffffffff16815260200182815260200192505050602060405180830381600087803b151561181857600080fd5b6102c65a03f1151561182957600080fd5b5050506040518051905050600160009054906101000a900473ffffffffffffffffffffffffffffffffffffffff1673ffffffffffffffffffffffffffffffffffffffff16637d64bcb46000604051602001526040518163ffffffff167c0100000000000000000000000000000000000000000000000000000000028152600401602060405180830381600087803b15156118c257600080fd5b6102c65a03f115156118d357600080fd5b5050506040518051905050600160009054906101000a900473ffffffffffffffffffffffffffffffffffffffff1673ffffffffffffffffffffffffffffffffffffffff1663f2fde38b6000809054906101000a900473ffffffffffffffffffffffffffffffffffffffff166040518263ffffffff167c0100000000000000000000000000000000000000000000000000000000028152600401808273ffffffffffffffffffffffffffffffffffffffff1673ffffffffffffffffffffffffffffffffffffffff168152602001915050600060405180830381600087803b15156119bb57600080fd5b6102c65a03f115156119cc57600080fd5b5050506004601360016101000a81548160ff021916908360048111156119ee57fe5b0217905550505050505050505050565b60085481565b601360009054906101000a900460ff1681565b6000809054906101000a900473ffffffffffffffffffffffffffffffffffffffff1673ffffffffffffffffffffffffffffffffffffffff163373ffffffffffffffffffffffffffffffffffffffff16141515611a7257600080fd5b600480811115611a7e57fe5b601360019054906101000a900460ff166004811115611a9957fe5b14151515611aa657600080fd5b600480811115611ab257fe5b816004811115611abe57fe5b1415611ad65760001515611ad157600080fd5b611b80565b60016004811115611ae357fe5b816004811115611aef57fe5b148015611afe57506000600254145b15611b0f5742600281905550611b7f565b60026004811115611b1c57fe5b816004811115611b2857fe5b148015611b3757506000600754145b15611b485742600781905550611b7e565b60036004811115611b5557fe5b816004811115611b6157fe5b148015611b7057506000600c54145b15611b7d5742600c819055505b5b5b5b80601360016101000a81548160ff02191690836004811115611b9e57fe5b021790555050565b60115481565b60095481565b600a5481565b600c5481565b60065481565b6000809054906101000a900473ffffffffffffffffffffffffffffffffffffffff1681565b600e5481565b60025481565b600080600080600080600080600c541480611c115750600c5442105b15611c1f5760009650611cee565b662386f26fc100008910151515611c3557600080fd5b611c48888a6121dc90919063ffffffff16565b9550600c5442039450611c66601154866121dc90919063ffffffff16565b6012819055506109c4935060649250611c9c611c8d60125485610d6890919063ffffffff16565b856121f790919063ffffffff16565b91506000821015611cac57600091505b611cd3612710611cc58489610d6890919063ffffffff16565b6121dc90919063ffffffff16565b9050611ce88187610d9b90919063ffffffff16565b95508596505b50505050505092915050565b60008060008067016345785d8a00008610151515611d1757600080fd5b611d2a85876121dc90919063ffffffff16565b9150681b1ae4d6e2ef50000086101515611d475760329250611e47565b6815af1d78b58c40000086101515611d6257602d9250611e46565b681043561a882930000086101515611d7d5760289250611e45565b680ad78ebc5ac620000086101515611d985760239250611e44565b68056bc75e2d6310000086101515611db357601e9250611e43565b6802b5e3af16b188000086101515611dce57601d9250611e42565b68022b1c8c1227a0000086101515611de957601c9250611e41565b6801a055690d9db8000086101515611e0457601b9250611e40565b6801158e460913d0000086101515611e1f57601a9250611e3f565b678ac7230489e8000086101515611e395760199250611e3e565b600092505b5b5b5b5b5b5b5b5b5b611e706064611e628560ff1685610d6890919063ffffffff16565b6121dc90919063ffffffff16565b9050611e858183610d9b90919063ffffffff16565b915081935050505092915050565b600080fd5b601360019054906101000a900460ff1681565b60035481565b60055481565b60105481565b60045481565b600080611ef1600f54611ee3600a54600554610d9b90919063ffffffff16565b610d9b90919063ffffffff16565b90508091505090565b60008060008067016345785d8a00008610151515611f1757600080fd5b604b9250611f2e85876121dc90919063ffffffff16565b9150611f596064611f4b8560ff1685610d6890919063ffffffff16565b6121dc90919063ffffffff16565b9050611f6e8183610d9b90919063ffffffff16565b915081935050505092915050565b600d5481565b600f5481565b6000809054906101000a900473ffffffffffffffffffffffffffffffffffffffff1673ffffffffffffffffffffffffffffffffffffffff163373ffffffffffffffffffffffffffffffffffffffff16141515611fe357600080fd5b600073ffffffffffffffffffffffffffffffffffffffff168173ffffffffffffffffffffffffffffffffffffffff161415151561201f57600080fd5b8073ffffffffffffffffffffffffffffffffffffffff166000809054906101000a900473ffffffffffffffffffffffffffffffffffffffff1673ffffffffffffffffffffffffffffffffffffffff167f8be0079c531659141344cd1fd0a4f28419497f9722a3daafe3b4186f6b6457e060405160405180910390a3806000806101000a81548173ffffffffffffffffffffffffffffffffffffffff021916908373ffffffffffffffffffffffffffffffffffffffff16021790555050565b60125481565b600160009054906101000a900473ffffffffffffffffffffffffffffffffffffffff1681565b8273ffffffffffffffffffffffffffffffffffffffff1663a9059cbb83836000604051602001526040518363ffffffff167c0100000000000000000000000000000000000000000000000000000000028152600401808373ffffffffffffffffffffffffffffffffffffffff1673ffffffffffffffffffffffffffffffffffffffff16815260200182815260200192505050602060405180830381600087803b15156121b457600080fd5b6102c65a03f115156121c557600080fd5b5050506040518051905015156121d757fe5b505050565b60008082848115156121ea57fe5b0490508091505092915050565b600082821115151561220557fe5b818303905092915050565b604051610609806122218339019056006060604052341561000f57600080fd5b60405160208061060983398101604052808051906020019091905050336000806101000a81548173ffffffffffffffffffffffffffffffffffffffff021916908373ffffffffffffffffffffffffffffffffffffffff160217905550428167ffffffffffffffff1611151561008357600080fd5b80600060146101000a81548167ffffffffffffffff021916908367ffffffffffffffff1602179055505061054d806100bc6000396000f300606060405260043610610062576000357c0100000000000000000000000000000000000000000000000000000000900463ffffffff16806319165587146100675780638da5cb5b146100a0578063b91d4001146100f5578063f2fde38b14610132575b600080fd5b341561007257600080fd5b61009e600480803573ffffffffffffffffffffffffffffffffffffffff1690602001909190505061016b565b005b34156100ab57600080fd5b6100b36102ba565b604051808273ffffffffffffffffffffffffffffffffffffffff1673ffffffffffffffffffffffffffffffffffffffff16815260200191505060405180910390f35b341561010057600080fd5b6101086102df565b604051808267ffffffffffffffff1667ffffffffffffffff16815260200191505060405180910390f35b341561013d57600080fd5b610169600480803573ffffffffffffffffffffffffffffffffffffffff169060200190919050506102f9565b005b60008060149054906101000a900467ffffffffffffffff1667ffffffffffffffff16421015151561019b57600080fd5b8173ffffffffffffffffffffffffffffffffffffffff166370a08231306000604051602001526040518263ffffffff167c0100000000000000000000000000000000000000000000000000000000028152600401808273ffffffffffffffffffffffffffffffffffffffff1673ffffffffffffffffffffffffffffffffffffffff168152602001915050602060405180830381600087803b151561023e57600080fd5b6102c65a03f1151561024f57600080fd5b50505060405180519050905060008111151561026a57600080fd5b6102b66000809054906101000a900473ffffffffffffffffffffffffffffffffffffffff16828473ffffffffffffffffffffffffffffffffffffffff1661044e9092919063ffffffff16565b5050565b6000809054906101000a900473ffffffffffffffffffffffffffffffffffffffff1681565b600060149054906101000a900467ffffffffffffffff1681565b6000809054906101000a900473ffffffffffffffffffffffffffffffffffffffff1673ffffffffffffffffffffffffffffffffffffffff163373ffffffffffffffffffffffffffffffffffffffff1614151561035457600080fd5b600073ffffffffffffffffffffffffffffffffffffffff168173ffffffffffffffffffffffffffffffffffffffff161415151561039057600080fd5b8073ffffffffffffffffffffffffffffffffffffffff166000809054906101000a900473ffffffffffffffffffffffffffffffffffffffff1673ffffffffffffffffffffffffffffffffffffffff167f8be0079c531659141344cd1fd0a4f28419497f9722a3daafe3b4186f6b6457e060405160405180910390a3806000806101000a81548173ffffffffffffffffffffffffffffffffffffffff021916908373ffffffffffffffffffffffffffffffffffffffff16021790555050565b8273ffffffffffffffffffffffffffffffffffffffff1663a9059cbb83836000604051602001526040518363ffffffff167c0100000000000000000000000000000000000000000000000000000000028152600401808373ffffffffffffffffffffffffffffffffffffffff1673ffffffffffffffffffffffffffffffffffffffff16815260200182815260200192505050602060405180830381600087803b15156104f957600080fd5b6102c65a03f1151561050a57600080fd5b50505060405180519050151561051c57fe5b5050505600a165627a7a72305820a9dd4ceacf4b8bdeefd3955e5c4c6831f1a059bcbe93423d1bfc15bbaf04cd9e0029a165627a7a72305820324c99077926bf0a9362d9b0b32b65b52031cc63e906ff11a1e072c993c7a200002960606040526000600360146101000a81548160ff0219169083151502179055506040805190810160405280600381526020017f4e474d0000000000000000000000000000000000000000000000000000000000815250600490805190602001906200006c92919062000102565b506040805190810160405280600981526020017f4e6967616d436f696e000000000000000000000000000000000000000000000081525060059080519060200190620000ba92919062000102565b5033600360006101000a81548173ffffffffffffffffffffffffffffffffffffffff021916908373ffffffffffffffffffffffffffffffffffffffff160217905550620001b1565b828054600181600116156101000203166002900490600052602060002090601f016020900481019282601f106200014557805160ff191683800117855562000176565b8280016001018555821562000176579182015b828111156200017557825182559160200191906001019062000158565b5b50905062000185919062000189565b5090565b620001ae91905b80821115620001aa57600081600090555060010162000190565b5090565b90565b611eef80620001c16000396000f300606060405260043610610112576000357c0100000000000000000000000000000000000000000000000000000000900463ffffffff16806305d2035b1461011757806306fdde0314610144578063095ea7b3146101d257806317ffc3201461022c57806318160ddd1461026557806323b872dd1461028e5780632aed7f3f14610307578063313ce5671461034057806340c10f191461036f57806342966c68146103c957806366188463146103ec57806370a08231146104465780637d64bcb4146104935780638da5cb5b146104c057806395d89b4114610515578063a9059cbb146105a3578063c0ee0b8a146105fd578063d73dd62314610653578063dd62ed3e146106ad578063f2fde38b14610719575b600080fd5b341561012257600080fd5b61012a610752565b604051808215151515815260200191505060405180910390f35b341561014f57600080fd5b610157610765565b6040518080602001828103825283818151815260200191508051906020019080838360005b8381101561019757808201518184015260208101905061017c565b50505050905090810190601f1680156101c45780820380516001836020036101000a031916815260200191505b509250505060405180910390f35b34156101dd57600080fd5b610212600480803573ffffffffffffffffffffffffffffffffffffffff16906020019091908035906020019091905050610803565b604051808215151515815260200191505060405180910390f35b341561023757600080fd5b610263600480803573ffffffffffffffffffffffffffffffffffffffff169060200190919050506108f5565b005b341561027057600080fd5b610278610a64565b6040518082815260200191505060405180910390f35b341561029957600080fd5b6102ed600480803573ffffffffffffffffffffffffffffffffffffffff1690602001909190803573ffffffffffffffffffffffffffffffffffffffff16906020019091908035906020019091905050610a6a565b604051808215151515815260200191505060405180910390f35b341561031257600080fd5b61033e600480803573ffffffffffffffffffffffffffffffffffffffff16906020019091905050610a9b565b005b341561034b57600080fd5b610353610bd0565b604051808260ff1660ff16815260200191505060405180910390f35b341561037a57600080fd5b6103af600480803573ffffffffffffffffffffffffffffffffffffffff16906020019091908035906020019091905050610bd5565b604051808215151515815260200191505060405180910390f35b34156103d457600080fd5b6103ea6004808035906020019091905050610dbd565b005b34156103f757600080fd5b61042c600480803573ffffffffffffffffffffffffffffffffffffffff16906020019091908035906020019091905050610f7d565b604051808215151515815260200191505060405180910390f35b341561045157600080fd5b61047d600480803573ffffffffffffffffffffffffffffffffffffffff1690602001909190505061120e565b6040518082815260200191505060405180910390f35b341561049e57600080fd5b6104a6611257565b604051808215151515815260200191505060405180910390f35b34156104cb57600080fd5b6104d3611303565b604051808273ffffffffffffffffffffffffffffffffffffffff1673ffffffffffffffffffffffffffffffffffffffff16815260200191505060405180910390f35b341561052057600080fd5b610528611329565b6040518080602001828103825283818151815260200191508051906020019080838360005b8381101561056857808201518184015260208101905061054d565b50505050905090810190601f1680156105955780820380516001836020036101000a031916815260200191505b509250505060405180910390f35b34156105ae57600080fd5b6105e3600480803573ffffffffffffffffffffffffffffffffffffffff169060200190919080359060200190919050506113c7565b604051808215151515815260200191505060405180910390f35b341561060857600080fd5b610651600480803573ffffffffffffffffffffffffffffffffffffffff1690602001909190803590602001909190803590602001908201803590602001919091929050506113f6565b005b341561065e57600080fd5b610693600480803573ffffffffffffffffffffffffffffffffffffffff169060200190919080359060200190919050506113fb565b604051808215151515815260200191505060405180910390f35b34156106b857600080fd5b610703600480803573ffffffffffffffffffffffffffffffffffffffff1690602001909190803573ffffffffffffffffffffffffffffffffffffffff169060200190919050506115f7565b6040518082815260200191505060405180910390f35b341561072457600080fd5b610750600480803573ffffffffffffffffffffffffffffffffffffffff1690602001909190505061167e565b005b600360149054906101000a900460ff1681565b60058054600181600116156101000203166002900480601f0160208091040260200160405190810160405280929190818152602001828054600181600116156101000203166002900480156107fb5780601f106107d0576101008083540402835291602001916107fb565b820191906000526020600020905b8154815290600101906020018083116107de57829003601f168201915b505050505081565b600081600260003373ffffffffffffffffffffffffffffffffffffffff1673ffffffffffffffffffffffffffffffffffffffff16815260200190815260200160002060008573ffffffffffffffffffffffffffffffffffffffff1673ffffffffffffffffffffffffffffffffffffffff168152602001908152602001600020819055508273ffffffffffffffffffffffffffffffffffffffff163373ffffffffffffffffffffffffffffffffffffffff167f8c5be1e5ebec7d5bd14f71427d1e84f3dd0314c0f7b2291e5b200ac8c7c3b925846040518082815260200191505060405180910390a36001905092915050565b6000600360009054906101000a900473ffffffffffffffffffffffffffffffffffffffff1673ffffffffffffffffffffffffffffffffffffffff163373ffffffffffffffffffffffffffffffffffffffff1614151561095357600080fd5b8173ffffffffffffffffffffffffffffffffffffffff166370a08231306000604051602001526040518263ffffffff167c0100000000000000000000000000000000000000000000000000000000028152600401808273ffffffffffffffffffffffffffffffffffffffff1673ffffffffffffffffffffffffffffffffffffffff168152602001915050602060405180830381600087803b15156109f657600080fd5b6102c65a03f11515610a0757600080fd5b505050604051805190509050610a60600360009054906101000a900473ffffffffffffffffffffffffffffffffffffffff16828473ffffffffffffffffffffffffffffffffffffffff166117d69092919063ffffffff16565b5050565b60005481565b6000600360149054906101000a900460ff161515610a8757600080fd5b610a928484846118a9565b90509392505050565b6000600360009054906101000a900473ffffffffffffffffffffffffffffffffffffffff1673ffffffffffffffffffffffffffffffffffffffff163373ffffffffffffffffffffffffffffffffffffffff16141515610af957600080fd5b8190508073ffffffffffffffffffffffffffffffffffffffff1663f2fde38b600360009054906101000a900473ffffffffffffffffffffffffffffffffffffffff166040518263ffffffff167c0100000000000000000000000000000000000000000000000000000000028152600401808273ffffffffffffffffffffffffffffffffffffffff1673ffffffffffffffffffffffffffffffffffffffff168152602001915050600060405180830381600087803b1515610bb857600080fd5b6102c65a03f11515610bc957600080fd5b5050505050565b601281565b6000600360009054906101000a900473ffffffffffffffffffffffffffffffffffffffff1673ffffffffffffffffffffffffffffffffffffffff163373ffffffffffffffffffffffffffffffffffffffff16141515610c3357600080fd5b600360149054906101000a900460ff16151515610c4f57600080fd5b610c6482600054611c6890919063ffffffff16565b600081905550610cbc82600160008673ffffffffffffffffffffffffffffffffffffffff1673ffffffffffffffffffffffffffffffffffffffff16815260200190815260200160002054611c6890919063ffffffff16565b600160008573ffffffffffffffffffffffffffffffffffffffff1673ffffffffffffffffffffffffffffffffffffffff168152602001908152602001600020819055508273ffffffffffffffffffffffffffffffffffffffff167f0f6798a560793a54c3bcfe86a93cde1e73087d944c0ea20544137d4121396885836040518082815260200191505060405180910390a28273ffffffffffffffffffffffffffffffffffffffff16600073ffffffffffffffffffffffffffffffffffffffff167fddf252ad1be2c89b69c2b068fc378daa952ba7f163c4a11628f55a4df523b3ef846040518082815260200191505060405180910390a36001905092915050565b6000600360009054906101000a900473ffffffffffffffffffffffffffffffffffffffff1673ffffffffffffffffffffffffffffffffffffffff163373ffffffffffffffffffffffffffffffffffffffff16141515610e1b57600080fd5b600082111515610e2a57600080fd5b600160003373ffffffffffffffffffffffffffffffffffffffff1673ffffffffffffffffffffffffffffffffffffffff168152602001908152602001600020548211151515610e7857600080fd5b339050610ecd82600160008473ffffffffffffffffffffffffffffffffffffffff1673ffffffffffffffffffffffffffffffffffffffff16815260200190815260200160002054611c8690919063ffffffff16565b600160008373ffffffffffffffffffffffffffffffffffffffff1673ffffffffffffffffffffffffffffffffffffffff16815260200190815260200160002081905550610f2582600054611c8690919063ffffffff16565b6000819055508073ffffffffffffffffffffffffffffffffffffffff167fcc16f5dbb4873280815c1ee09dbd06736cffcc184412cf7a71a0fdb75d397ca5836040518082815260200191505060405180910390a25050565b600080600260003373ffffffffffffffffffffffffffffffffffffffff1673ffffffffffffffffffffffffffffffffffffffff16815260200190815260200160002060008573ffffffffffffffffffffffffffffffffffffffff1673ffffffffffffffffffffffffffffffffffffffff1681526020019081526020016000205490508083111561108e576000600260003373ffffffffffffffffffffffffffffffffffffffff1673ffffffffffffffffffffffffffffffffffffffff16815260200190815260200160002060008673ffffffffffffffffffffffffffffffffffffffff1673ffffffffffffffffffffffffffffffffffffffff16815260200190815260200160002081905550611122565b6110a18382611c8690919063ffffffff16565b600260003373ffffffffffffffffffffffffffffffffffffffff1673ffffffffffffffffffffffffffffffffffffffff16815260200190815260200160002060008673ffffffffffffffffffffffffffffffffffffffff1673ffffffffffffffffffffffffffffffffffffffff168152602001908152602001600020819055505b8373ffffffffffffffffffffffffffffffffffffffff163373ffffffffffffffffffffffffffffffffffffffff167f8c5be1e5ebec7d5bd14f71427d1e84f3dd0314c0f7b2291e5b200ac8c7c3b925600260003373ffffffffffffffffffffffffffffffffffffffff1673ffffffffffffffffffffffffffffffffffffffff16815260200190815260200160002060008873ffffffffffffffffffffffffffffffffffffffff1673ffffffffffffffffffffffffffffffffffffffff168152602001908152602001600020546040518082815260200191505060405180910390a3600191505092915050565b6000600160008373ffffffffffffffffffffffffffffffffffffffff1673ffffffffffffffffffffffffffffffffffffffff168152602001908152602001600020549050919050565b6000600360009054906101000a900473ffffffffffffffffffffffffffffffffffffffff1673ffffffffffffffffffffffffffffffffffffffff163373ffffffffffffffffffffffffffffffffffffffff161415156112b557600080fd5b6001600360146101000a81548160ff0219169083151502179055507fae5184fba832cb2b1f702aca6117b8d265eaf03ad33eb133f19dde0f5920fa0860405160405180910390a16001905090565b600360009054906101000a900473ffffffffffffffffffffffffffffffffffffffff1681565b60048054600181600116156101000203166002900480601f0160208091040260200160405190810160405280929190818152602001828054600181600116156101000203166002900480156113bf5780601f10611394576101008083540402835291602001916113bf565b820191906000526020600020905b8154815290600101906020018083116113a257829003601f168201915b505050505081565b6000600360149054906101000a900460ff1615156113e457600080fd5b6113ee8383611c9f565b905092915050565b600080fd5b600061148c82600260003373ffffffffffffffffffffffffffffffffffffffff1673ffffffffffffffffffffffffffffffffffffffff16815260200190815260200160002060008673ffffffffffffffffffffffffffffffffffffffff1673ffffffffffffffffffffffffffffffffffffffff16815260200190815260200160002054611c6890919063ffffffff16565b600260003373ffffffffffffffffffffffffffffffffffffffff1673ffffffffffffffffffffffffffffffffffffffff16815260200190815260200160002060008573ffffffffffffffffffffffffffffffffffffffff1673ffffffffffffffffffffffffffffffffffffffff168152602001908152602001600020819055508273ffffffffffffffffffffffffffffffffffffffff163373ffffffffffffffffffffffffffffffffffffffff167f8c5be1e5ebec7d5bd14f71427d1e84f3dd0314c0f7b2291e5b200ac8c7c3b925600260003373ffffffffffffffffffffffffffffffffffffffff1673ffffffffffffffffffffffffffffffffffffffff16815260200190815260200160002060008773ffffffffffffffffffffffffffffffffffffffff1673ffffffffffffffffffffffffffffffffffffffff168152602001908152602001600020546040518082815260200191505060405180910390a36001905092915050565b6000600260008473ffffffffffffffffffffffffffffffffffffffff1673ffffffffffffffffffffffffffffffffffffffff16815260200190815260200160002060008373ffffffffffffffffffffffffffffffffffffffff1673ffffffffffffffffffffffffffffffffffffffff16815260200190815260200160002054905092915050565b600360009054906101000a900473ffffffffffffffffffffffffffffffffffffffff1673ffffffffffffffffffffffffffffffffffffffff163373ffffffffffffffffffffffffffffffffffffffff161415156116da57600080fd5b600073ffffffffffffffffffffffffffffffffffffffff168173ffffffffffffffffffffffffffffffffffffffff161415151561171657600080fd5b8073ffffffffffffffffffffffffffffffffffffffff16600360009054906101000a900473ffffffffffffffffffffffffffffffffffffffff1673ffffffffffffffffffffffffffffffffffffffff167f8be0079c531659141344cd1fd0a4f28419497f9722a3daafe3b4186f6b6457e060405160405180910390a380600360006101000a81548173ffffffffffffffffffffffffffffffffffffffff021916908373ffffffffffffffffffffffffffffffffffffffff16021790555050565b8273ffffffffffffffffffffffffffffffffffffffff1663a9059cbb83836000604051602001526040518363ffffffff167c0100000000000000000000000000000000000000000000000000000000028152600401808373ffffffffffffffffffffffffffffffffffffffff1673ffffffffffffffffffffffffffffffffffffffff16815260200182815260200192505050602060405180830381600087803b151561188157600080fd5b6102c65a03f1151561189257600080fd5b5050506040518051905015156118a457fe5b505050565b60008073ffffffffffffffffffffffffffffffffffffffff168373ffffffffffffffffffffffffffffffffffffffff16141515156118e657600080fd5b600160008573ffffffffffffffffffffffffffffffffffffffff1673ffffffffffffffffffffffffffffffffffffffff16815260200190815260200160002054821115151561193457600080fd5b600260008573ffffffffffffffffffffffffffffffffffffffff1673ffffffffffffffffffffffffffffffffffffffff16815260200190815260200160002060003373ffffffffffffffffffffffffffffffffffffffff1673ffffffffffffffffffffffffffffffffffffffff1681526020019081526020016000205482111515156119bf57600080fd5b611a1182600160008773ffffffffffffffffffffffffffffffffffffffff1673ffffffffffffffffffffffffffffffffffffffff16815260200190815260200160002054611c8690919063ffffffff16565b600160008673ffffffffffffffffffffffffffffffffffffffff1673ffffffffffffffffffffffffffffffffffffffff16815260200190815260200160002081905550611aa682600160008673ffffffffffffffffffffffffffffffffffffffff1673ffffffffffffffffffffffffffffffffffffffff16815260200190815260200160002054611c6890919063ffffffff16565b600160008573ffffffffffffffffffffffffffffffffffffffff1673ffffffffffffffffffffffffffffffffffffffff16815260200190815260200160002081905550611b7882600260008773ffffffffffffffffffffffffffffffffffffffff1673ffffffffffffffffffffffffffffffffffffffff16815260200190815260200160002060003373ffffffffffffffffffffffffffffffffffffffff1673ffffffffffffffffffffffffffffffffffffffff16815260200190815260200160002054611c8690919063ffffffff16565b600260008673ffffffffffffffffffffffffffffffffffffffff1673ffffffffffffffffffffffffffffffffffffffff16815260200190815260200160002060003373ffffffffffffffffffffffffffffffffffffffff1673ffffffffffffffffffffffffffffffffffffffff168152602001908152602001600020819055508273ffffffffffffffffffffffffffffffffffffffff168473ffffffffffffffffffffffffffffffffffffffff167fddf252ad1be2c89b69c2b068fc378daa952ba7f163c4a11628f55a4df523b3ef846040518082815260200191505060405180910390a3600190509392505050565b6000808284019050838110151515611c7c57fe5b8091505092915050565b6000828211151515611c9457fe5b818303905092915050565b60008073ffffffffffffffffffffffffffffffffffffffff168373ffffffffffffffffffffffffffffffffffffffff1614151515611cdc57600080fd5b600160003373ffffffffffffffffffffffffffffffffffffffff1673ffffffffffffffffffffffffffffffffffffffff168152602001908152602001600020548211151515611d2a57600080fd5b611d7c82600160003373ffffffffffffffffffffffffffffffffffffffff1673ffffffffffffffffffffffffffffffffffffffff16815260200190815260200160002054611c8690919063ffffffff16565b600160003373ffffffffffffffffffffffffffffffffffffffff1673ffffffffffffffffffffffffffffffffffffffff16815260200190815260200160002081905550611e1182600160008673ffffffffffffffffffffffffffffffffffffffff1673ffffffffffffffffffffffffffffffffffffffff16815260200190815260200160002054611c6890919063ffffffff16565b600160008573ffffffffffffffffffffffffffffffffffffffff1673ffffffffffffffffffffffffffffffffffffffff168152602001908152602001600020819055508273ffffffffffffffffffffffffffffffffffffffff163373ffffffffffffffffffffffffffffffffffffffff167fddf252ad1be2c89b69c2b068fc378daa952ba7f163c4a11628f55a4df523b3ef846040518082815260200191505060405180910390a360019050929150505600a165627a7a723058203d828dc77a71c63ca81c0b7d96e53327ca33d0b5aed984bf26658b196958a5200029",
  "source": "pragma solidity ^0.4.0;\n\nimport './zeppelin/ownership/Ownable.sol';\nimport './NigamCoin.sol';\nimport './TokenTimelockMod.sol';\n\ncontract NigamCrowdsale is Ownable, HasNoTokens{\n    using SafeMath for uint256;\n    using SafeMath for uint8;\n\n    NigamCoin public token;                         //token for crowdsale\n\n    uint256   public preSale1_startTimestamp;       //when Presale 1 started uint256 public\n    uint256   public preSale1BasePriceInWei;        //price in wei\n    uint256   public preSale1EthHardCap;            //hard cap for Round 1 presale in ETH\n    uint256   public preSale1WeiCollected;          //how much wei already collected at pre-sale 1\n    uint256   public preSale1_endTimestamp;         //when Presale 1 ends uint256 public\n\n    uint256   public preSale2_startTimestamp;       //when Presale 2 started uint256 public\n    uint256   public preSale2BasePriceInWei;        //price in wei\n    uint256   public preSale2EthHardCap;            //hard cap for Round 2 presale in ether\n    uint256   public preSale2WeiCollected;          //how much wei already collected at pre-sale 2\n    uint256   public preSale2_endTimestamp;         //when Presale 2 ends uint256 public\n\n    uint256   public ICO_startTimestamp;            //when ICO sale started uint256 public\n    uint256   public ICO_basePriceInWei;            //price in wei\n    uint256   public ICO_EthHardCap;                //hard cap for the main sale round in ETH\n    uint256   public ICO_WeiCollected;              //how much wei already collected at main sale\n    uint256   public ICO_endTimestamp;              //when Presale 2 ends uint256 public\n    uint256   public bonusDecreaseInterval;         //seconds before bonus decreases uint32\n    uint256   public daysPassed;                    //days passed since ICO start datetime (86,400 sec/day)\n\n    uint8     public ownersPercent;                 //percent of tokens that will be minted to owner\n\n    enum State { Paused, FirstPreSale, SecondPreSale, ICO, Finished }\n    State public state;                             //current state of the contract\n\n\n\n    /**\n    * event for token purchase logging\n    * @param purchaser who paid for the tokens\n    * @param value weis paid for purchase\n    * @param amount amount of tokens purchased\n    */\n    event TokenPurchase(address indexed purchaser, uint256 value, uint256 amount);\n\n    /**\n    * Stores addresses of beneficiaries in constructor timelocks\n    */\n    event TokenTimelockCreated(address TokenTimelock, uint64 releaseTimestamp, address beneficiary, uint256 amount);\n\n\n    function NigamCrowdsale(\n        uint256 _preSale1BasePriceInWei, uint256 _preSale1EthHardCap,\n        uint256 _preSale2BasePriceInWei, uint256 _preSale2EthHardCap,\n        uint256 _ICO_basePriceInWei, uint256 _ICO_EthHardCap, uint256 _bonusDecreaseInterval,\n        uint8 _ownersPercent\n        ){\n        state = State.Paused;\n        preSale1BasePriceInWei = _preSale1BasePriceInWei;\n        preSale1EthHardCap = _preSale1EthHardCap;\n        preSale2BasePriceInWei = _preSale2BasePriceInWei;\n        preSale2EthHardCap = _preSale2EthHardCap;\n        ICO_basePriceInWei = _ICO_basePriceInWei;\n        ICO_EthHardCap = _ICO_EthHardCap;\n        bonusDecreaseInterval = _bonusDecreaseInterval;\n        ownersPercent = _ownersPercent;\n        token = new NigamCoin();                    //creating token in constructor\n    }\n\n    /**\n    * @notice To buy tokens just send ether here\n    */\n    function() payable {\n        require(msg.value > 0);\n        require(crowdsaleOpen());\n        uint256 rate = currentRate(msg.value);\n        assert(rate > 0);\n        uint256 buyerTokens = rate.mul(msg.value);\n        //uint256 ownerTokens = buyerTokens.mul(ownersPercent).div(100);  //convert ownersPercent to percent by dividing it by 100\n        token.mint(msg.sender, buyerTokens);\n        //token.mint(owner, ownerTokens);\n        TokenPurchase(msg.sender, msg.value, buyerTokens);              //event for TokenPurchase\n        if (state == State.FirstPreSale) {\n            preSale1WeiCollected = preSale1WeiCollected.add(msg.value);\n        }else if (state == State.SecondPreSale) {\n            preSale2WeiCollected = preSale2WeiCollected.add(msg.value);\n        }else if (state == State.ICO) {\n            ICO_WeiCollected = ICO_WeiCollected.add(msg.value);\n        }\n        if ( hardCapReached(state) ){\n            state = State.Paused;\n        }\n    }\n    /**\n    * @notice Check if crowdsale is open or not\n    */\n    function crowdsaleOpen() constant returns(bool){\n        return  (state != State.Paused) &&\n                (state != State.Finished) &&\n                !hardCapReached(state);\n    }\n    /**\n    * @notice How many tokens you receive for 1 ETH\n    * @param etherAmount how much ether you are sending\n    * @return conversion rate\n    */\n    function currentRate(uint256 etherAmount) public constant returns(uint256){\n        if(state == State.Paused || state == State.Finished) return 0;\n        uint256 rate;\n        if(state == State.FirstPreSale) {\n            rate = calculatePreSaleOneRate(etherAmount, preSale1BasePriceInWei);\n        } else if(state == State.SecondPreSale) {\n            rate = calculatePreSaleTwoRate(etherAmount, preSale2BasePriceInWei);\n        } else if(state == State.ICO){\n            rate = calculateICOrate(etherAmount, ICO_basePriceInWei);\n        } else {\n            revert();   //state is wrong\n        }\n        return rate;\n    }\n\n    function calculatePreSaleOneRate(uint256 etherAmount, uint256 basePriceWei) constant returns(uint256) {\n        require(etherAmount >= 100 finney);                     //minimum contribution 0.1 ETH\n        uint8 bonusPercentage = 75;                             //75% of baseTokens awarded as bonus\n        uint256 rate = etherAmount.div(basePriceWei);           //convert etherAmount to wei and divide by price per token (in wei)\n        uint256 bonus = rate.mul(bonusPercentage).div(100);     //divide by 100 to convert bonusPercentage to percent\n        rate = rate.add(bonus);                                 //add bonus tokens to base rate\n        return rate;\n    }\n\n    function calculatePreSaleTwoRate(uint256 etherAmount, uint256 basePriceWei) constant returns(uint256) {\n        require(etherAmount >= 100 finney);                 //minimum contribution 0.1 ETH\n        uint8 bonusPercentage;                              //bonus percent of tokens awarded for ETH sent\n        uint256 rate = etherAmount.div(basePriceWei);       //convert etherAmount to wei and divide by price per token (in wei)\n        if(etherAmount >= 500 ether) {                  //$500,000 or or 500 ether\n            bonusPercentage = 50;                       //50% of baseTokens awarded\n        }\n        else if(etherAmount >= 400 ether) {             //$400,000 or 400 ether\n            bonusPercentage = 45;                       //45% of baseTokens awarded\n        }\n        else if(etherAmount >= 300 ether) {             //$300,000 or 300 ether\n            bonusPercentage = 40;                       //40% of baseTokens awarded\n        }\n        else if(etherAmount >= 200 ether) {             //$200,000 or 200 ether\n            bonusPercentage = 35;                       //35% of baseTokens awarded\n        }\n        else if(etherAmount >= 100 ether) {             //$100,000 or 100 ether\n            bonusPercentage = 30;                       //30% of baseTokens awarded\n        }\n        else if(etherAmount >= 50 ether) {              //$50,000 or 50 ether\n            bonusPercentage = 29;                       //29% of baseTokens awarded\n        }\n        else if(etherAmount >= 40 ether) {              //$40,000 or 40 ether\n            bonusPercentage = 28;                       //28% of baseTokens awarded\n        }\n        else if(etherAmount >= 30 ether) {              //$30,000 or 30 ether\n            bonusPercentage = 27;                       //27% of baseTokens awarded\n        }\n        else if(etherAmount >= 20 ether) {              //$20,000 or 20 ether\n            bonusPercentage = 26;                       //26% of baseTokens awarded\n        }\n        else if(etherAmount >= 10 ether) {              //$10,000 or 10 ether\n            bonusPercentage = 25;                       //25% of baseTokens awarded\n        }\n        else {\n            bonusPercentage = 0;                        //no bonus for anything less than $10,000\n        }\n        uint256 bonus = rate.mul(bonusPercentage).div(100);   //divide by 100 to convert bonusPercentage to percent\n        rate = rate.add(bonus);                               //add bonus tokens to base rate\n        return rate;\n    }\n\n    function calculateICOrate(uint256 etherAmount, uint256 basePriceWei) constant returns(uint256){\n        if(ICO_startTimestamp == 0 || now < ICO_startTimestamp) return 0;\n        require(etherAmount >= 10 finney);                               //minimum contribution 0.01 ETH\n        uint256 rate = etherAmount.div(basePriceWei);                    //convert etherAmount to wei and divide by price per token (in wei)\n        uint256 saleRunningSeconds = now - ICO_startTimestamp;\n        daysPassed = saleRunningSeconds.div(bonusDecreaseInterval);     //remainder will be discarded (bonusDecreaaseInterval = 86400 seconds)\n        uint256 startBonusPercentage = 2500;                            //bonus percent of tokens handed on Day 1 (* 100)\n        uint256 decreaseAmount = 100;                                   //1% decrease in bonusTokens per day\n        uint256 bonusPercentage = startBonusPercentage.sub(decreaseAmount.mul(daysPassed));\n        if (bonusPercentage < 0) {\n            bonusPercentage = 0;\n        }\n        uint256 bonus = rate.mul(bonusPercentage).div(10000);   //divide by 10,000 to convert bonusPercentage to percent\n        rate = rate.add(bonus);                                 //add bonus tokens to base ratee\n        return rate;\n    }\n\n    function hardCapReached(State _state) constant returns(bool){\n        if(_state == State.FirstPreSale) {\n            return preSale1WeiCollected >= preSale1EthHardCap.mul(1000000000000000000);\n        }else if(_state == State.SecondPreSale) {\n            return preSale2WeiCollected >= preSale2EthHardCap.mul(1000000000000000000);\n        }else if(_state == State.ICO){\n            return ICO_WeiCollected >= ICO_EthHardCap.mul(1000000000000000000);\n        }else {\n            return false;\n        }\n    }\n\n    /**\n    * @notice Owner can change state\n    * @param newState New state of the crowdsale\n    */\n    function setState(State newState) public onlyOwner {\n        require(state != State.Finished); //if Finished, no state change possible\n        if(newState == State.Finished){\n            //token.finishMinting();\n            //token.transferOwnership(owner);\n            require(false);\n        }else if(newState == State.FirstPreSale && preSale1_startTimestamp == 0) {\n            preSale1_startTimestamp = now;\n        }else if(newState == State.SecondPreSale && preSale2_startTimestamp == 0) {\n            preSale2_startTimestamp = now;\n        }else if(newState == State.ICO && ICO_startTimestamp == 0) {\n            ICO_startTimestamp = now;\n        }\n        state = newState;\n    }\n    function totalEthRaised() returns(uint256){\n        uint256 _totalEthRaised = preSale1WeiCollected.add(preSale2WeiCollected).add(ICO_WeiCollected);   //total wei raised in each round\n        return _totalEthRaised;\n    }\n    /**\n    * @notice Owner can claim collected ether\n    * @param amount How much ether to take. Please leave enough ether for price updates\n    */\n    function claim(uint256 amount) onlyOwner {\n        require(this.balance >= amount);\n        owner.transfer(amount);\n    }\n\n    function finishCrowdsale(address[] reserveBeneficiaries, uint64[] reserveReleases, uint8[] reservePercents) onlyOwner public {\n        require(reserveBeneficiaries.length == reserveReleases.length);\n        require(reserveBeneficiaries.length == reservePercents.length);\n\n        uint8 beneficiaryPercent = 0;\n        for(uint8 i=0; i < reservePercents.length; i++){\n            require(reservePercents[i] > 0);\n            require(reservePercents[i] <= 100);\n            beneficiaryPercent += reservePercents[i];\n            require(beneficiaryPercent <= 100);\n        }\n        uint8 ownerPercent2 = 100 - beneficiaryPercent;\n\n        uint256 totalTokens = token.totalSupply().mul(ownersPercent).div(100);\n        for(i=0; i < reserveBeneficiaries.length; i++){\n            uint256 amount = totalTokens.mul(reservePercents[i]).div(100);\n            require(reserveReleases[i] > now);\n            require(reserveBeneficiaries[i] != address(0));\n            //TokenTimelock tt = new TokenTimelock(token, reserveBeneficiaries[i], reserveReleases[i]);\n            TokenTimelockMod tt = new TokenTimelockMod(reserveReleases[i]);\n            tt.transferOwnership(reserveBeneficiaries[i]);\n            assert(token.mint(tt, amount));\n            TokenTimelockCreated(tt, reserveReleases[i], reserveBeneficiaries[i], amount);\n        }\n\n        amount = totalTokens.mul(ownerPercent2).div(100);\n        token.mint(owner, amount);\n\n        token.finishMinting();\n        token.transferOwnership(owner);\n        state = State.Finished;\n    }\n\n}\n\n\n",
  "sourcePath": "/Users/nigamshah/Desktop/CODER_INC/CoderICO/final_contracts/testCrowdSaleETH/testCrowdSaleETH/contracts/NigamCrowdsale.sol",
  "compiler": {
    "name": "solc",
    "version": "0.4.18+commit.9cf6e910.Emscripten.clang"
  },
  "schemaVersion": "1.0.1",
  "updatedAt": "2017-12-28T23:53:38.414Z"
}