{
  "contractName": "TokenTimelockMod",
  "abi": [
    {
      "constant": false,
      "inputs": [
        {
          "name": "token",
          "type": "address"
        }
      ],
      "name": "release",
      "outputs": [],
      "payable": false,
      "stateMutability": "nonpayable",
      "type": "function"
    },
    {
      "constant": true,
      "inputs": [],
      "name": "owner",
      "outputs": [
        {
          "name": "",
          "type": "address"
        }
      ],
      "payable": false,
      "stateMutability": "view",
      "type": "function"
    },
    {
      "constant": true,
      "inputs": [],
      "name": "releaseTime",
      "outputs": [
        {
          "name": "",
          "type": "uint64"
        }
      ],
      "payable": false,
      "stateMutability": "view",
      "type": "function"
    },
    {
      "constant": false,
      "inputs": [
        {
          "name": "newOwner",
          "type": "address"
        }
      ],
      "name": "transferOwnership",
      "outputs": [],
      "payable": false,
      "stateMutability": "nonpayable",
      "type": "function"
    },
    {
      "inputs": [
        {
          "name": "_releaseTime",
          "type": "uint64"
        }
      ],
      "payable": false,
      "stateMutability": "nonpayable",
      "type": "constructor"
    },
    {
      "anonymous": false,
      "inputs": [
        {
          "indexed": true,
          "name": "previousOwner",
          "type": "address"
        },
        {
          "indexed": true,
          "name": "newOwner",
          "type": "address"
        }
      ],
      "name": "OwnershipTransferred",
      "type": "event"
    }
  ],
  "bytecode": "0x6060604052341561000f57600080fd5b60405160208061060983398101604052808051906020019091905050336000806101000a81548173ffffffffffffffffffffffffffffffffffffffff021916908373ffffffffffffffffffffffffffffffffffffffff160217905550428167ffffffffffffffff1611151561008357600080fd5b80600060146101000a81548167ffffffffffffffff021916908367ffffffffffffffff1602179055505061054d806100bc6000396000f300606060405260043610610062576000357c0100000000000000000000000000000000000000000000000000000000900463ffffffff16806319165587146100675780638da5cb5b146100a0578063b91d4001146100f5578063f2fde38b14610132575b600080fd5b341561007257600080fd5b61009e600480803573ffffffffffffffffffffffffffffffffffffffff1690602001909190505061016b565b005b34156100ab57600080fd5b6100b36102ba565b604051808273ffffffffffffffffffffffffffffffffffffffff1673ffffffffffffffffffffffffffffffffffffffff16815260200191505060405180910390f35b341561010057600080fd5b6101086102df565b604051808267ffffffffffffffff1667ffffffffffffffff16815260200191505060405180910390f35b341561013d57600080fd5b610169600480803573ffffffffffffffffffffffffffffffffffffffff169060200190919050506102f9565b005b60008060149054906101000a900467ffffffffffffffff1667ffffffffffffffff16421015151561019b57600080fd5b8173ffffffffffffffffffffffffffffffffffffffff166370a08231306000604051602001526040518263ffffffff167c0100000000000000000000000000000000000000000000000000000000028152600401808273ffffffffffffffffffffffffffffffffffffffff1673ffffffffffffffffffffffffffffffffffffffff168152602001915050602060405180830381600087803b151561023e57600080fd5b6102c65a03f1151561024f57600080fd5b50505060405180519050905060008111151561026a57600080fd5b6102b66000809054906101000a900473ffffffffffffffffffffffffffffffffffffffff16828473ffffffffffffffffffffffffffffffffffffffff1661044e9092919063ffffffff16565b5050565b6000809054906101000a900473ffffffffffffffffffffffffffffffffffffffff1681565b600060149054906101000a900467ffffffffffffffff1681565b6000809054906101000a900473ffffffffffffffffffffffffffffffffffffffff1673ffffffffffffffffffffffffffffffffffffffff163373ffffffffffffffffffffffffffffffffffffffff1614151561035457600080fd5b600073ffffffffffffffffffffffffffffffffffffffff168173ffffffffffffffffffffffffffffffffffffffff161415151561039057600080fd5b8073ffffffffffffffffffffffffffffffffffffffff166000809054906101000a900473ffffffffffffffffffffffffffffffffffffffff1673ffffffffffffffffffffffffffffffffffffffff167f8be0079c531659141344cd1fd0a4f28419497f9722a3daafe3b4186f6b6457e060405160405180910390a3806000806101000a81548173ffffffffffffffffffffffffffffffffffffffff021916908373ffffffffffffffffffffffffffffffffffffffff16021790555050565b8273ffffffffffffffffffffffffffffffffffffffff1663a9059cbb83836000604051602001526040518363ffffffff167c0100000000000000000000000000000000000000000000000000000000028152600401808373ffffffffffffffffffffffffffffffffffffffff1673ffffffffffffffffffffffffffffffffffffffff16815260200182815260200192505050602060405180830381600087803b15156104f957600080fd5b6102c65a03f1151561050a57600080fd5b50505060405180519050151561051c57fe5b5050505600a165627a7a72305820a9dd4ceacf4b8bdeefd3955e5c4c6831f1a059bcbe93423d1bfc15bbaf04cd9e0029",
  "source": "pragma solidity ^0.4.18;\n\n\nimport './zeppelin/token/ERC20Basic.sol';\nimport './zeppelin/token/SafeERC20.sol';\nimport './zeppelin/ownership/Ownable.sol';\n\n\n/**\n * @title TokenTimelock\n * @dev TokenTimelock is a token holder contract that will allow a\n * beneficiary to extract the tokens after a given release time\n */\ncontract TokenTimelockMod is Ownable {\n  using SafeERC20 for ERC20Basic;\n\n  // timestamp when token release is enabled\n  uint64 public releaseTime;\n\n  function TokenTimelockMod(uint64 _releaseTime) public {\n    require(_releaseTime > now);\n    releaseTime = _releaseTime;\n  }\n\n  /**\n   * @notice Transfers tokens held by timelock to beneficiary.\n   */\n  function release(ERC20Basic token) public {\n    require(now >= releaseTime);\n\n    uint256 amount = token.balanceOf(this);\n    require(amount > 0);\n\n    token.safeTransfer(owner, amount);\n  }\n\n  // /**\n  // * Sample usage\n  // */\n  // function initReserve(uint64[] reserveReleases, uint256[] reserveAmounts, address[] reserveBeneficiaries) internal {\n  //     require(reserveReleases.length == reserveAmounts.length && reserveReleases.length == reserveBeneficiaries.length);\n  //     for(uint8 i=0; i < reserveReleases.length; i++){\n  //         require(reserveReleases[i] > now);\n  //         require(reserveAmounts[i] > 0);\n  //         require(reserveBeneficiaries[i] != address(0));\n  //         TokenTimelockMod tt = new TokenTimelockMod(reserveReleases[i]);\n  //         tt.transferOwnership(reserveBeneficiaries[i]);\n  //         assert(token.mint(tt, reserveAmounts[i]));\n  //         TokenTimelockCreated(tt, reserveReleases[i], reserveBeneficiaries[i], reserveAmounts[i]);\n  //     }\n  // }\n\n}\n\n\n",
  "sourcePath": "/Users/nigamshah/Desktop/CODER_INC/CoderICO/final_contracts/testCrowdSaleETH/testCrowdSaleETH/contracts/TokenTimelockMod.sol",
  "compiler": {
    "name": "solc",
    "version": "0.4.18+commit.9cf6e910.Emscripten.clang"
  },
  "schemaVersion": "1.0.1",
  "updatedAt": "2017-12-28T23:53:38.418Z"
}